{
  "contractName": "GoalBank",
  "abi": [
    {
      "anonymous": false,
      "inputs": [
        {
          "indexed": true,
          "internalType": "string",
          "name": "title",
          "type": "string"
        },
        {
          "indexed": false,
          "internalType": "uint256",
          "name": "amount",
          "type": "uint256"
        }
      ],
      "name": "cleared",
      "type": "event"
    },
    {
      "anonymous": false,
      "inputs": [
        {
          "indexed": true,
          "internalType": "string",
          "name": "title",
          "type": "string"
        },
        {
          "indexed": false,
          "internalType": "uint256",
          "name": "amount",
          "type": "uint256"
        }
      ],
      "name": "seted",
      "type": "event"
    },
    {
      "inputs": [
        {
          "internalType": "uint256",
          "name": "",
          "type": "uint256"
        }
      ],
      "name": "goals",
      "outputs": [
        {
          "internalType": "string",
          "name": "title",
          "type": "string"
        },
        {
          "internalType": "uint256",
          "name": "amount",
          "type": "uint256"
        },
        {
          "internalType": "bool",
          "name": "complete",
          "type": "bool"
        },
        {
          "internalType": "uint256",
          "name": "id",
          "type": "uint256"
        }
      ],
      "stateMutability": "view",
      "type": "function",
      "constant": true
    },
    {
      "inputs": [
        {
          "internalType": "string",
          "name": "_title",
          "type": "string"
        },
        {
          "internalType": "uint256",
          "name": "_amount",
          "type": "uint256"
        }
      ],
      "name": "set",
      "outputs": [],
      "stateMutability": "payable",
      "type": "function",
      "payable": true
    },
    {
      "inputs": [
        {
          "internalType": "uint256",
          "name": "_id",
          "type": "uint256"
        }
      ],
      "name": "clear",
      "outputs": [],
      "stateMutability": "nonpayable",
      "type": "function"
    },
    {
      "inputs": [],
      "name": "getMyGoals",
      "outputs": [
        {
          "components": [
            {
              "internalType": "string",
              "name": "title",
              "type": "string"
            },
            {
              "internalType": "uint256",
              "name": "amount",
              "type": "uint256"
            },
            {
              "internalType": "bool",
              "name": "complete",
              "type": "bool"
            },
            {
              "internalType": "uint256",
              "name": "id",
              "type": "uint256"
            }
          ],
          "internalType": "struct GoalBank.Goal[]",
          "name": "",
          "type": "tuple[]"
        }
      ],
      "stateMutability": "view",
      "type": "function",
      "constant": true
    }
  ],
  "bytecode": "0x608060405234801561001057600080fd5b5061140a806100206000396000f3fe60806040526004361061003f5760003560e01c80635911fc341461004457806361449ca21461006f5780638a42ebe9146100af578063c0fe1af8146100cb575b600080fd5b34801561005057600080fd5b506100596100f4565b6040516100669190610bc5565b60405180910390f35b34801561007b57600080fd5b5061009660048036038101906100919190610c27565b6103bd565b6040516100a69493929190610cbc565b60405180910390f35b6100c960048036038101906100c49190610e3d565b610492565b005b3480156100d757600080fd5b506100f260048036038101906100ed9190610c27565b610678565b005b60606000600260003373ffffffffffffffffffffffffffffffffffffffff1673ffffffffffffffffffffffffffffffffffffffff1681526020019081526020016000205467ffffffffffffffff81111561015157610150610d12565b5b60405190808252806020026020018201604052801561018a57816020015b610177610906565b81526020019060019003908161016f5790505b5090506000805b600080549050811015610333573373ffffffffffffffffffffffffffffffffffffffff166001600083815260200190815260200160002060009054906101000a900473ffffffffffffffffffffffffffffffffffffffff1673ffffffffffffffffffffffffffffffffffffffff161415610320576000818154811061021957610218610e99565b5b906000526020600020906004020160405180608001604052908160008201805461024290610ef7565b80601f016020809104026020016040519081016040528092919081815260200182805461026e90610ef7565b80156102bb5780601f10610290576101008083540402835291602001916102bb565b820191906000526020600020905b81548152906001019060200180831161029e57829003601f168201915b50505050508152602001600182015481526020016002820160009054906101000a900460ff1615151515815260200160038201548152505083838151811061030657610305610e99565b5b6020026020010181905250818061031c90610f58565b9250505b808061032b90610f58565b915050610191565b5080600260003373ffffffffffffffffffffffffffffffffffffffff1673ffffffffffffffffffffffffffffffffffffffff16815260200190815260200160002054146103b5576040517f08c379a00000000000000000000000000000000000000000000000000000000081526004016103ac90610fed565b60405180910390fd5b819250505090565b600081815481106103cd57600080fd5b90600052602060002090600402016000915090508060000180546103f090610ef7565b80601f016020809104026020016040519081016040528092919081815260200182805461041c90610ef7565b80156104695780601f1061043e57610100808354040283529160200191610469565b820191906000526020600020905b81548152906001019060200180831161044c57829003601f168201915b5050505050908060010154908060020160009054906101000a900460ff16908060030154905084565b8034146104d4576040517f08c379a00000000000000000000000000000000000000000000000000000000081526004016104cb90611059565b60405180910390fd5b600080805490509050600060405180608001604052808581526020018481526020016000151581526020018381525090806001815401808255809150506001900390600052602060002090600402016000909190919091506000820151816000019080519060200190610548929190610930565b506020820151816001015560408201518160020160006101000a81548160ff021916908315150217905550606082015181600301555050336001600083815260200190815260200160002060006101000a81548173ffffffffffffffffffffffffffffffffffffffff021916908373ffffffffffffffffffffffffffffffffffffffff160217905550600260003373ffffffffffffffffffffffffffffffffffffffff1673ffffffffffffffffffffffffffffffffffffffff168152602001908152602001600020600081548092919061062190610f58565b91905055508260405161063491906110b5565b60405180910390207f99643852011528c99deae035cc11b35934caad70a04fca0bf14bc40f69bce6838360405161066b91906110cc565b60405180910390a2505050565b600080828154811061068d5761068c610e99565b5b906000526020600020906004020190506000816001015490503373ffffffffffffffffffffffffffffffffffffffff166001600085815260200190815260200160002060009054906101000a900473ffffffffffffffffffffffffffffffffffffffff1673ffffffffffffffffffffffffffffffffffffffff1614610747576040517f08c379a000000000000000000000000000000000000000000000000000000000815260040161073e90611133565b60405180910390fd5b600115158260020160009054906101000a900460ff16151514156107a0576040517f08c379a0000000000000000000000000000000000000000000000000000000008152600401610797906111c5565b60405180910390fd5b804710156107e3576040517f08c379a00000000000000000000000000000000000000000000000000000000081526004016107da90611257565b60405180910390fd5b60018260020160006101000a81548160ff02191690831515021790555060003373ffffffffffffffffffffffffffffffffffffffff1682604051610826906112a8565b60006040518083038185875af1925050503d8060008114610863576040519150601f19603f3d011682016040523d82523d6000602084013e610868565b606091505b50509050806108ac576040517f08c379a00000000000000000000000000000000000000000000000000000000081526004016108a390611309565b60405180910390fd5b826000016040516108bd91906113bd565b60405180910390207fdf65d30adbcf1a75917c4632ea06368bbf0dda233c1c55acb304f3d0a8c7b96f84600101546040516108f891906110cc565b60405180910390a250505050565b60405180608001604052806060815260200160008152602001600015158152602001600081525090565b82805461093c90610ef7565b90600052602060002090601f01602090048101928261095e57600085556109a5565b82601f1061097757805160ff19168380011785556109a5565b828001600101855582156109a5579182015b828111156109a4578251825591602001919060010190610989565b5b5090506109b291906109b6565b5090565b5b808211156109cf5760008160009055506001016109b7565b5090565b600081519050919050565b600082825260208201905092915050565b6000819050602082019050919050565b600081519050919050565b600082825260208201905092915050565b60005b83811015610a39578082015181840152602081019050610a1e565b83811115610a48576000848401525b50505050565b6000601f19601f8301169050919050565b6000610a6a826109ff565b610a748185610a0a565b9350610a84818560208601610a1b565b610a8d81610a4e565b840191505092915050565b6000819050919050565b610aab81610a98565b82525050565b60008115159050919050565b610ac681610ab1565b82525050565b60006080830160008301518482036000860152610ae98282610a5f565b9150506020830151610afe6020860182610aa2565b506040830151610b116040860182610abd565b506060830151610b246060860182610aa2565b508091505092915050565b6000610b3b8383610acc565b905092915050565b6000602082019050919050565b6000610b5b826109d3565b610b6581856109de565b935083602082028501610b77856109ef565b8060005b85811015610bb35784840389528151610b948582610b2f565b9450610b9f83610b43565b925060208a01995050600181019050610b7b565b50829750879550505050505092915050565b60006020820190508181036000830152610bdf8184610b50565b905092915050565b6000604051905090565b600080fd5b600080fd5b610c0481610a98565b8114610c0f57600080fd5b50565b600081359050610c2181610bfb565b92915050565b600060208284031215610c3d57610c3c610bf1565b5b6000610c4b84828501610c12565b91505092915050565b600082825260208201905092915050565b6000610c70826109ff565b610c7a8185610c54565b9350610c8a818560208601610a1b565b610c9381610a4e565b840191505092915050565b610ca781610a98565b82525050565b610cb681610ab1565b82525050565b60006080820190508181036000830152610cd68187610c65565b9050610ce56020830186610c9e565b610cf26040830185610cad565b610cff6060830184610c9e565b95945050505050565b600080fd5b600080fd5b7f4e487b7100000000000000000000000000000000000000000000000000000000600052604160045260246000fd5b610d4a82610a4e565b810181811067ffffffffffffffff82111715610d6957610d68610d12565b5b80604052505050565b6000610d7c610be7565b9050610d888282610d41565b919050565b600067ffffffffffffffff821115610da857610da7610d12565b5b610db182610a4e565b9050602081019050919050565b82818337600083830152505050565b6000610de0610ddb84610d8d565b610d72565b905082815260208101848484011115610dfc57610dfb610d0d565b5b610e07848285610dbe565b509392505050565b600082601f830112610e2457610e23610d08565b5b8135610e34848260208601610dcd565b91505092915050565b60008060408385031215610e5457610e53610bf1565b5b600083013567ffffffffffffffff811115610e7257610e71610bf6565b5b610e7e85828601610e0f565b9250506020610e8f85828601610c12565b9150509250929050565b7f4e487b7100000000000000000000000000000000000000000000000000000000600052603260045260246000fd5b7f4e487b7100000000000000000000000000000000000000000000000000000000600052602260045260246000fd5b60006002820490506001821680610f0f57607f821691505b60208210811415610f2357610f22610ec8565b5b50919050565b7f4e487b7100000000000000000000000000000000000000000000000000000000600052601160045260246000fd5b6000610f6382610a98565b91507fffffffffffffffffffffffffffffffffffffffffffffffffffffffffffffffff821415610f9657610f95610f29565b5b600182019050919050565b7f67657474696e6720796f757220676f616c73206973206661696c656400000000600082015250565b6000610fd7601c83610c54565b9150610fe282610fa1565b602082019050919050565b6000602082019050818103600083015261100681610fca565b9050919050565b7f496e73756666696369656e742066756e64000000000000000000000000000000600082015250565b6000611043601183610c54565b915061104e8261100d565b602082019050919050565b6000602082019050818103600083015261107281611036565b9050919050565b600081905092915050565b600061108f826109ff565b6110998185611079565b93506110a9818560208601610a1b565b80840191505092915050565b60006110c18284611084565b915081905092915050565b60006020820190506110e16000830184610c9e565b92915050565b7f7468697320676f616c206973206e6f7420796f75727300000000000000000000600082015250565b600061111d601683610c54565b9150611128826110e7565b602082019050919050565b6000602082019050818103600083015261114c81611110565b9050919050565b7f7468697320676f616c2068617320616c7265616479206265656e20616368696560008201527f7665640000000000000000000000000000000000000000000000000000000000602082015250565b60006111af602383610c54565b91506111ba82611153565b604082019050919050565b600060208201905081810360008301526111de816111a2565b9050919050565b7f676f616c42616e6b20646f6573206e6f74206861766520656e6f75676820667560008201527f6e64730000000000000000000000000000000000000000000000000000000000602082015250565b6000611241602383610c54565b915061124c826111e5565b604082019050919050565b6000602082019050818103600083015261127081611234565b9050919050565b600081905092915050565b50565b6000611292600083611277565b915061129d82611282565b600082019050919050565b60006112b382611285565b9150819050919050565b7f457468207472616e73666572206661696c656400000000000000000000000000600082015250565b60006112f3601383610c54565b91506112fe826112bd565b602082019050919050565b60006020820190508181036000830152611322816112e6565b9050919050565b60008190508160005260206000209050919050565b6000815461134b81610ef7565b6113558186611079565b945060018216600081146113705760018114611381576113b4565b60ff198316865281860193506113b4565b61138a85611329565b60005b838110156113ac5781548189015260018201915060208101905061138d565b838801955050505b50505092915050565b60006113c9828461133e565b91508190509291505056fea2646970667358221220d2555bebae2c7e1665f81f8091d5fc9edb1e9bd069b9581c0d25380f252a311a64736f6c634300080b0033",
  "immutableReferences": {},
  "source": "// SPDX-License-Identifier: GPL-3.0\r\n\r\npragma solidity >=0.7.0 <0.9.0;\r\n\r\n/**\r\n * @title goalBank\r\n * @dev i dont know what I should write here\r\n */\r\n\r\n contract GoalBank {\r\n\r\n    struct Goal {\r\n        string title;\r\n        uint amount;\r\n        bool complete;\r\n        uint id;\r\n    }\r\n\r\n    Goal[] public goals;\r\n\r\n    mapping(uint => address) private goalToUser;\r\n    mapping(address => uint) private userGoalCount;\r\n\r\n    event seted( string indexed title, uint amount );\r\n    event cleared( string indexed title, uint amount );\r\n\r\n     function set(string memory _title, uint _amount) public payable {\r\n         require(msg.value == _amount, \"Insufficient fund\");\r\n         uint _id = goals.length;\r\n         goals.push(Goal(_title, _amount, false, _id));\r\n         goalToUser[_id] = msg.sender;\r\n         userGoalCount[msg.sender]++;\r\n         emit seted(_title, _amount);\r\n     }\r\n\r\n     function clear(uint _id) public{\r\n         Goal storage _goal = goals[_id];\r\n         uint _amount = _goal.amount;\r\n         require(goalToUser[_id] == msg.sender, \"this goal is not yours\");\r\n         require(_goal.complete != true, \"this goal has already been achieved\");\r\n         require(address(this).balance >= _amount, \"goalBank does not have enough funds\");\r\n         _goal.complete=true;\r\n         (bool success, ) = payable(msg.sender).call{value: _amount}(\"\");\r\n         require(success, \"Eth transfer failed\");\r\n         emit cleared(_goal.title, _goal.amount);\r\n     }\r\n\r\n      function getMyGoals() public view returns(Goal[] memory){\r\n          Goal[] memory myGoals = new Goal[](userGoalCount[msg.sender]);\r\n          uint myGoalsCount = 0;\r\n          for(uint i=0; i < goals.length; i++){\r\n              if(goalToUser[i] ==msg.sender){\r\n                  myGoals[myGoalsCount] = goals[i];\r\n                  myGoalsCount++;\r\n              }\r\n          }\r\n          require(userGoalCount[msg.sender] == myGoalsCount, \"getting your goals is failed\");\r\n          return myGoals;\r\n      }\r\n }",
  "sourcePath": "/home/kirua/blockchain/portfolio/goalBank/contracts/goalBank.sol",
  "compiler": {
    "name": "solc",
    "version": "0.8.11+commit.d7f03943.Emscripten.clang"
  },
  "schemaVersion": "3.4.5",
  "updatedAt": "2022-03-08T10:59:43.516Z",
  "networkType": "ethereum",
  "devdoc": {
    "details": "i dont know what I should write here",
    "kind": "dev",
    "methods": {},
    "title": "goalBank",
    "version": 1
  },
  "userdoc": {
    "kind": "user",
    "methods": {},
    "version": 1
  }
}