{
  "contractName": "GoalBank",
  "abi": [
    {
      "inputs": [
        {
          "internalType": "uint256",
          "name": "",
          "type": "uint256"
        }
      ],
      "name": "goals",
      "outputs": [
        {
          "internalType": "string",
          "name": "title",
          "type": "string"
        },
        {
          "internalType": "uint256",
          "name": "amount",
          "type": "uint256"
        },
        {
          "internalType": "bool",
          "name": "complete",
          "type": "bool"
        },
        {
          "internalType": "uint256",
          "name": "id",
          "type": "uint256"
        }
      ],
      "stateMutability": "view",
      "type": "function",
      "constant": true
    },
    {
      "inputs": [
        {
          "internalType": "string",
          "name": "_title",
          "type": "string"
        },
        {
          "internalType": "uint256",
          "name": "_amount",
          "type": "uint256"
        }
      ],
      "name": "set",
      "outputs": [],
      "stateMutability": "payable",
      "type": "function",
      "payable": true
    },
    {
      "inputs": [
        {
          "internalType": "uint256",
          "name": "_id",
          "type": "uint256"
        }
      ],
      "name": "clear",
      "outputs": [],
      "stateMutability": "nonpayable",
      "type": "function"
    },
    {
      "inputs": [],
      "name": "getMyGoals",
      "outputs": [
        {
          "components": [
            {
              "internalType": "string",
              "name": "title",
              "type": "string"
            },
            {
              "internalType": "uint256",
              "name": "amount",
              "type": "uint256"
            },
            {
              "internalType": "bool",
              "name": "complete",
              "type": "bool"
            },
            {
              "internalType": "uint256",
              "name": "id",
              "type": "uint256"
            }
          ],
          "internalType": "struct GoalBank.Goal[]",
          "name": "",
          "type": "tuple[]"
        }
      ],
      "stateMutability": "view",
      "type": "function",
      "constant": true
    }
  ],
  "bytecode": "0x608060405234801561001057600080fd5b50611250806100206000396000f3fe60806040526004361061003f5760003560e01c80635911fc341461004457806361449ca21461006f5780638a42ebe9146100af578063c0fe1af8146100cb575b600080fd5b34801561005057600080fd5b506100596100f4565b6040516100669190610b24565b60405180910390f35b34801561007b57600080fd5b5061009660048036038101906100919190610b86565b6103bd565b6040516100a69493929190610c1b565b60405180910390f35b6100c960048036038101906100c49190610d9c565b610492565b005b3480156100d757600080fd5b506100f260048036038101906100ed9190610b86565b61062b565b005b60606000600260003373ffffffffffffffffffffffffffffffffffffffff1673ffffffffffffffffffffffffffffffffffffffff1681526020019081526020016000205467ffffffffffffffff81111561015157610150610c71565b5b60405190808252806020026020018201604052801561018a57816020015b610177610865565b81526020019060019003908161016f5790505b5090506000805b600080549050811015610333573373ffffffffffffffffffffffffffffffffffffffff166001600083815260200190815260200160002060009054906101000a900473ffffffffffffffffffffffffffffffffffffffff1673ffffffffffffffffffffffffffffffffffffffff161415610320576000818154811061021957610218610df8565b5b906000526020600020906004020160405180608001604052908160008201805461024290610e56565b80601f016020809104026020016040519081016040528092919081815260200182805461026e90610e56565b80156102bb5780601f10610290576101008083540402835291602001916102bb565b820191906000526020600020905b81548152906001019060200180831161029e57829003601f168201915b50505050508152602001600182015481526020016002820160009054906101000a900460ff1615151515815260200160038201548152505083838151811061030657610305610df8565b5b6020026020010181905250818061031c90610eb7565b9250505b808061032b90610eb7565b915050610191565b5080600260003373ffffffffffffffffffffffffffffffffffffffff1673ffffffffffffffffffffffffffffffffffffffff16815260200190815260200160002054146103b5576040517f08c379a00000000000000000000000000000000000000000000000000000000081526004016103ac90610f4c565b60405180910390fd5b819250505090565b600081815481106103cd57600080fd5b90600052602060002090600402016000915090508060000180546103f090610e56565b80601f016020809104026020016040519081016040528092919081815260200182805461041c90610e56565b80156104695780601f1061043e57610100808354040283529160200191610469565b820191906000526020600020905b81548152906001019060200180831161044c57829003601f168201915b5050505050908060010154908060020160009054906101000a900460ff16908060030154905084565b8034146104d4576040517f08c379a00000000000000000000000000000000000000000000000000000000081526004016104cb90610fb8565b60405180910390fd5b60008080549050905060006040518060800160405280858152602001848152602001600015158152602001838152509080600181540180825580915050600190039060005260206000209060040201600090919091909150600082015181600001908051906020019061054892919061088f565b506020820151816001015560408201518160020160006101000a81548160ff021916908315150217905550606082015181600301555050336001600083815260200190815260200160002060006101000a81548173ffffffffffffffffffffffffffffffffffffffff021916908373ffffffffffffffffffffffffffffffffffffffff160217905550600260003373ffffffffffffffffffffffffffffffffffffffff1673ffffffffffffffffffffffffffffffffffffffff168152602001908152602001600020600081548092919061062190610eb7565b9190505550505050565b60008082815481106106405761063f610df8565b5b906000526020600020906004020190506000816001015490503373ffffffffffffffffffffffffffffffffffffffff166001600085815260200190815260200160002060009054906101000a900473ffffffffffffffffffffffffffffffffffffffff1673ffffffffffffffffffffffffffffffffffffffff16146106fa576040517f08c379a00000000000000000000000000000000000000000000000000000000081526004016106f190611024565b60405180910390fd5b600115158260020160009054906101000a900460ff1615151415610753576040517f08c379a000000000000000000000000000000000000000000000000000000000815260040161074a906110b6565b60405180910390fd5b80471015610796576040517f08c379a000000000000000000000000000000000000000000000000000000000815260040161078d90611148565b60405180910390fd5b60018260020160006101000a81548160ff02191690831515021790555060003373ffffffffffffffffffffffffffffffffffffffff16826040516107d990611199565b60006040518083038185875af1925050503d8060008114610816576040519150601f19603f3d011682016040523d82523d6000602084013e61081b565b606091505b505090508061085f576040517f08c379a0000000000000000000000000000000000000000000000000000000008152600401610856906111fa565b60405180910390fd5b50505050565b60405180608001604052806060815260200160008152602001600015158152602001600081525090565b82805461089b90610e56565b90600052602060002090601f0160209004810192826108bd5760008555610904565b82601f106108d657805160ff1916838001178555610904565b82800160010185558215610904579182015b828111156109035782518255916020019190600101906108e8565b5b5090506109119190610915565b5090565b5b8082111561092e576000816000905550600101610916565b5090565b600081519050919050565b600082825260208201905092915050565b6000819050602082019050919050565b600081519050919050565b600082825260208201905092915050565b60005b8381101561099857808201518184015260208101905061097d565b838111156109a7576000848401525b50505050565b6000601f19601f8301169050919050565b60006109c98261095e565b6109d38185610969565b93506109e381856020860161097a565b6109ec816109ad565b840191505092915050565b6000819050919050565b610a0a816109f7565b82525050565b60008115159050919050565b610a2581610a10565b82525050565b60006080830160008301518482036000860152610a4882826109be565b9150506020830151610a5d6020860182610a01565b506040830151610a706040860182610a1c565b506060830151610a836060860182610a01565b508091505092915050565b6000610a9a8383610a2b565b905092915050565b6000602082019050919050565b6000610aba82610932565b610ac4818561093d565b935083602082028501610ad68561094e565b8060005b85811015610b125784840389528151610af38582610a8e565b9450610afe83610aa2565b925060208a01995050600181019050610ada565b50829750879550505050505092915050565b60006020820190508181036000830152610b3e8184610aaf565b905092915050565b6000604051905090565b600080fd5b600080fd5b610b63816109f7565b8114610b6e57600080fd5b50565b600081359050610b8081610b5a565b92915050565b600060208284031215610b9c57610b9b610b50565b5b6000610baa84828501610b71565b91505092915050565b600082825260208201905092915050565b6000610bcf8261095e565b610bd98185610bb3565b9350610be981856020860161097a565b610bf2816109ad565b840191505092915050565b610c06816109f7565b82525050565b610c1581610a10565b82525050565b60006080820190508181036000830152610c358187610bc4565b9050610c446020830186610bfd565b610c516040830185610c0c565b610c5e6060830184610bfd565b95945050505050565b600080fd5b600080fd5b7f4e487b7100000000000000000000000000000000000000000000000000000000600052604160045260246000fd5b610ca9826109ad565b810181811067ffffffffffffffff82111715610cc857610cc7610c71565b5b80604052505050565b6000610cdb610b46565b9050610ce78282610ca0565b919050565b600067ffffffffffffffff821115610d0757610d06610c71565b5b610d10826109ad565b9050602081019050919050565b82818337600083830152505050565b6000610d3f610d3a84610cec565b610cd1565b905082815260208101848484011115610d5b57610d5a610c6c565b5b610d66848285610d1d565b509392505050565b600082601f830112610d8357610d82610c67565b5b8135610d93848260208601610d2c565b91505092915050565b60008060408385031215610db357610db2610b50565b5b600083013567ffffffffffffffff811115610dd157610dd0610b55565b5b610ddd85828601610d6e565b9250506020610dee85828601610b71565b9150509250929050565b7f4e487b7100000000000000000000000000000000000000000000000000000000600052603260045260246000fd5b7f4e487b7100000000000000000000000000000000000000000000000000000000600052602260045260246000fd5b60006002820490506001821680610e6e57607f821691505b60208210811415610e8257610e81610e27565b5b50919050565b7f4e487b7100000000000000000000000000000000000000000000000000000000600052601160045260246000fd5b6000610ec2826109f7565b91507fffffffffffffffffffffffffffffffffffffffffffffffffffffffffffffffff821415610ef557610ef4610e88565b5b600182019050919050565b7f67657474696e6720796f757220676f616c73206973206661696c656400000000600082015250565b6000610f36601c83610bb3565b9150610f4182610f00565b602082019050919050565b60006020820190508181036000830152610f6581610f29565b9050919050565b7f496e73756666696369656e742066756e64000000000000000000000000000000600082015250565b6000610fa2601183610bb3565b9150610fad82610f6c565b602082019050919050565b60006020820190508181036000830152610fd181610f95565b9050919050565b7f7468697320676f616c206973206e6f7420796f75727300000000000000000000600082015250565b600061100e601683610bb3565b915061101982610fd8565b602082019050919050565b6000602082019050818103600083015261103d81611001565b9050919050565b7f7468697320676f616c2068617320616c7265616479206265656e20616368696560008201527f7665640000000000000000000000000000000000000000000000000000000000602082015250565b60006110a0602383610bb3565b91506110ab82611044565b604082019050919050565b600060208201905081810360008301526110cf81611093565b9050919050565b7f676f616c42616e6b20646f6573206e6f74206861766520656e6f75676820667560008201527f6e64730000000000000000000000000000000000000000000000000000000000602082015250565b6000611132602383610bb3565b915061113d826110d6565b604082019050919050565b6000602082019050818103600083015261116181611125565b9050919050565b600081905092915050565b50565b6000611183600083611168565b915061118e82611173565b600082019050919050565b60006111a482611176565b9150819050919050565b7f457468207472616e73666572206661696c656400000000000000000000000000600082015250565b60006111e4601383610bb3565b91506111ef826111ae565b602082019050919050565b60006020820190508181036000830152611213816111d7565b905091905056fea2646970667358221220c0478c3d1800405a1027f610cff88c8003e297e561130fc33698e895a03ed2e664736f6c634300080b0033",
  "immutableReferences": {},
  "source": "// SPDX-License-Identifier: GPL-3.0\r\n\r\npragma solidity >=0.7.0 <0.9.0;\r\n\r\n/**\r\n * @title goalBank\r\n * @dev i dont know what I should write here\r\n */\r\n\r\n contract GoalBank {\r\n\r\n    struct Goal {\r\n        string title;\r\n        uint amount;\r\n        bool complete;\r\n        uint id;\r\n    }\r\n\r\n    Goal[] public goals;\r\n\r\n    mapping(uint => address) private goalToUser;\r\n    mapping(address => uint) private userGoalCount;\r\n\r\n     function set(string memory _title, uint _amount) public payable {\r\n         require(msg.value == _amount, \"Insufficient fund\");\r\n         uint _id = goals.length;\r\n         goals.push(Goal(_title, _amount, false, _id));\r\n         goalToUser[_id] = msg.sender;\r\n         userGoalCount[msg.sender]++;\r\n     }\r\n\r\n     function clear(uint _id) public{\r\n         Goal storage _goal = goals[_id];\r\n         uint _amount = _goal.amount;\r\n         require(goalToUser[_id] == msg.sender, \"this goal is not yours\");\r\n         require(_goal.complete != true, \"this goal has already been achieved\");\r\n         require(address(this).balance >= _amount, \"goalBank does not have enough funds\");\r\n         _goal.complete=true;\r\n         (bool success, ) = payable(msg.sender).call{value: _amount}(\"\");\r\n         require(success, \"Eth transfer failed\");\r\n     }\r\n\r\n      function getMyGoals() public view returns(Goal[] memory){\r\n          Goal[] memory myGoals = new Goal[](userGoalCount[msg.sender]);\r\n          uint myGoalsCount = 0;\r\n          for(uint i=0; i < goals.length; i++){\r\n              if(goalToUser[i] ==msg.sender){\r\n                  myGoals[myGoalsCount] = goals[i];\r\n                  myGoalsCount++;\r\n              }\r\n          }\r\n          require(userGoalCount[msg.sender] == myGoalsCount, \"getting your goals is failed\");\r\n          return myGoals;\r\n      }\r\n }",
  "sourcePath": "/home/kirua/blockchain/portfolio/goalBank/contracts/goalBank.sol",
  "compiler": {
    "name": "solc",
    "version": "0.8.11+commit.d7f03943.Emscripten.clang"
  },
  "schemaVersion": "3.4.5",
  "updatedAt": "2022-03-07T06:32:08.215Z",
  "networkType": "ethereum",
  "devdoc": {
    "details": "i dont know what I should write here",
    "kind": "dev",
    "methods": {},
    "title": "goalBank",
    "version": 1
  },
  "userdoc": {
    "kind": "user",
    "methods": {},
    "version": 1
  }
}